:100000000C9438000C9455000C9455000C94550039
:100010000C9455000C9455000C9455000C9455000C
:100020000C9455000C9455000C9455000C945500FC
:100030000C9455000C9455000C9455000C945500EC
:100040000C9455000C9455000C9455000C945500DC
:100050000C9455000C9455000C9455000C945500CC
:100060000C9455000C945500636173686C65737350
:1000700011241FBECFEFD8E0DEBFCDBF12E0A0E05D
:10008000B1E0E2E9FAE102C005900D92A030B107BB
:10009000D9F722E0A0E0B2E001C01D92A838B20773
:1000A000E1F70E94780C0C94390D0C940000CF936A
:1000B000DF938BE30E940E0489EF0E940E0481E01F
:1000C0000E940E0485E00E940E0485E00E940E044A
:1000D00080E00E940E0480E00E940E04C8E6D0E09A
:1000E000FE0184910E940E042196F0E0C037DF07E4
:1000F000B9F7DF91CF910895CF93DF938091850277
:10010000883149F08CE68093860288E180938702EB
:10011000DF91CF910895809105020E940E048CE139
:1001200090E00E941F0D8F3F79F0C4E0D0E0CE0137
:100130000E941F0D0E940E042196CC31D105B9F703
:1001400080E980938602E4CFC8E1D0E080E00E949D
:100150000E042197D9F7F4CF80918502813039F0D0
:100160008CE68093860281E08093870208958091D7
:1001700005020E940E0489EC0E940E0480E980931F
:10018000860208950F931F93CF93DF93809185028A
:10019000843059F08CE68093860284E08093870255
:1001A000DF91CF911F910F910895809105020E94D8
:1001B0000E0407E212E0E8010E94E404899382E061
:1001C000CB32D807C9F7D0E0C0E0F80161918F01C8
:1001D000CE010E94270D2196C430D105B1F763E00E
:1001E0008DE190E00E94270D63E08EE190E00E9497
:1001F000270DF999FECF80E980938602D1CFEF9247
:10020000FF920F931F93CF93DF93809185028830E5
:1002100069F08CE68093860288E080938702DF9104
:10022000CF911F910F91FF90EF900895809105025B
:100230000E940E0487E2E82E82E0F82EE7010E9479
:10024000E404899382E0CB32D807C9F701E012E0D9
:10025000E8010E94E4048993E2E0C530DE07C9F7B3
:10026000D0E0C0E0F70161917F01CE010E94270D2F
:100270002196C430D105B1F7CFE1D0E0F80161910A
:100280008F01CE010E94270D2196C332D105B1F70F
:1002900063E08DE190E00E94270D63E08EE190E045
:1002A0000E94270DF999FECF80E980938602B7CF8F
:1002B000EF92FF920F931F93CF93DF93809185026C
:1002C000843069F08CE68093860284E08093870214
:1002D000DF91CF911F910F91FF90EF9008958DE1E5
:1002E00090E00E941F0DC82F811105C089E6809300
:1002F000860283E8EBCF809105020E940E0487E21C
:10030000E82E82E0F82E87010E94E404F801819330
:100310008F01F2E00B321F07B9F7D1E010E000E0E7
:10032000C8010E941F0DF70191917F018913D0E050
:100330000F5F1F4F0430110599F7DD2371F081E045
:100340008093000263E08DE190E00E94270DF9990F
:10035000FECF80E980938602BBCFC1506C2F8DE128
:1003600090E00E94270DF999FECF83E680938602E4
:10037000C06CC0938702ACCFCF92DF92EF92FF9216
:100380000F931F93CF93DF9380918502883079F08C
:100390008CE68093860288E080938702DF91CF917C
:1003A0001F910F91FF90EF90DF90CF9008958EE115
:1003B00090E00E941F0DC82F811105C089E680932F
:1003C000860284E8E9CF809105020E940E0491E044
:1003D000C92E92E0D92E86010E94E404F80181938F
:1003E0008F01F2E005301F07B9F787E2E82E82E0BF
:1003F000F82E87010E94E404F80181938F01F2E056
:100400000B321F07B9F70FE110E0D1E0C8010E94DD
:100410001F0DF60191916F018913D0E00F5F1F4FFF
:100420000332110599F7DD23F9F081E08093000292
:10043000D0E0C0E0F70161917F01CE010E94270D5D
:100440002196C430D105B1F763E08DE190E00E94C0
:10045000270D63E08EE190E00E94270DF999FECF11
:1004600080E9809386029ACFC1506C2F8EE190E094
:100470000E94270DF999FECF83E680938602C06C17
:10048000C09387028BCF80918502823039F08CE651
:100490008093860282E0809387020895809105020E
:1004A0000E940E048DE190E00E941F0D0E940E0438
:1004B0008EE190E00E941F0D0E940E0480E980935F
:1004C00086020895CF93DF9380918502813049F0B1
:1004D0008CE68093860281E080938702DF91CF9142
:1004E0000895809105020E940E04D0E0C0E0CE0184
:1004F0000E941F0D8F3F59F42196C430D105B9F7E2
:1005000080E00E940E0480E980938602E7CF81E0BC
:10051000F8CFEF92FF920F931F93CF93DF938091C9
:1005200085028C3169F08CE6809386028CE18093A1
:100530008702DF91CF911F910F91FF90EF90089567
:100540008CE190E00E941F0D8F3F29F08AE6809396
:10055000860281E8ECCF809105020E940E048DE4B2
:10056000E82E82E0F82EE7010E94E404899382E0FD
:10057000C536D807C9F701E012E0E8010E94E4049B
:100580008993E2E0C530DE07C9F7C4E0D0E0F701A7
:1005900061917F01CE010E94270D2196CC31D105BA
:1005A000B1F7CFE1D0E0F80161918F01CE010E9457
:1005B000270D2196C332D105B1F763E08DE190E0BC
:1005C0000E94270D63E08EE190E00E94270D60E01D
:1005D0008CE190E00E94270DF999FECF80E980938D
:1005E0008602A7CFCF92DF92EF92FF920F931F93D5
:1005F000CF93DF93809185028150813478F08CE62F
:100600008093860281E480938702DF91CF911F91CE
:100610000F91FF90EF90DF90CF90089580910502A9
:100620000E940E040E94E404C82F8F3198F585E6DD
:10063000C82E82E0D82E760110E000E0809185027D
:100640008150990B0817190754F1F0E4CF9F7001FE
:10065000112425E2E20EF11C10E000E0D0918502A9
:100660002D2F2150330BC9010217130704F1C111BB
:100670000BC0692F83E290E00E94270D6FEF6D0F92
:1006800084E290E00E94270DF999FECF80E98093E3
:100690008602BBCF8AE68093860284E8B4CF0E94AC
:1006A000E404F70181937F010F5F1F4FC7CFF6016D
:1006B00061916F01C8018E0D9F1D0E94270D0F5F74
:1006C0001F4FCCCF80910002811107C099E6909313
:1006D000860292E890938702089581E00895CF936F
:1006E000DF930E946203882351F08091850280325B
:1006F00049F08CE68093860280E280938702DF9146
:10070000CF910895809105020E940E04CCE2D2E0C0
:100710000E94E404899382E0CC34D807C9F780E9C9
:1007200080938602ECCF0F931F93CF93DF930E94A9
:100730006203882351F080918502803259F08CE663
:100740008093860280E280938702DF91CF911F9190
:100750000F91089583E290E00E941F0DC82F84E25C
:1007600090E00E941F0D9C2F809729F08AE68093CD
:10077000860288E8E8CF06E012E0C5E2D0E0CE01CC
:100780000E941F0DF80181938F012196C534D10578
:10079000B1F705E612E020E24CE252E060E286E0CA
:1007A00092E00E94D60B809105020E940E04E8019F
:1007B00005E812E089910E940E040C171D07D1F77D
:1007C00080E980938602C1CFCF93DF9300D0CDB76D
:1007D000DEB78A838A81882F90E082959295907FF8
:1007E0009827807F98278071898382EB90E0FC01B5
:1007F00080818E32D0F385E290E02981FC01208354
:1008000082EB90E0FC01108282EB90E0FC01108210
:1008100000000F900F90DF91CF910895CF93DF9359
:1008200000D000D0CDB7DEB78C838C818B8381EB79
:1008300090E022E0FC01208382EB90E028E2FC01C2
:10084000208385E290E0FC01208185E290E0206138
:10085000FC01208384E290E0FC01208184E290E0AE
:100860002061FC01208380E00E94E4031A82198247
:100870000DC08C810E94E4039A818C8189278A8330
:100880008C8186958C8389818F5F8983898188306B
:1008900080F38A810E94E40381E00E94E40382EBFA
:1008A00090E0FC0180818E32D0F384E290E0FC0184
:1008B000208184E290E02F7EFC01208385E290E09D
:1008C000FC01208185E290E02F7EFC01208382EBF9
:1008D00090E0FC0180818D35D0F383E290E0FC0153
:1008E0008081882F90E080719927892B91F483E291
:1008F00090E0FC018081882F90E080719927892BFE
:10090000B1F382EB90E026E1FC0120838B818C83A4
:1009100098CF81EB90E0FC01108200000F900F90C7
:100920000F900F90DF91CF910895CF93DF930F92A7
:10093000CDB7DEB782EB90E0FC0180818E32D0F340
:1009400082EB90E0FC01108282EB90E0FC011082CF
:1009500082EB90E0FC0180818C30D0F383E290E068
:10096000FC0180818071898382EB90E0FC018081B1
:100970008731D0F383E290E0FC018081882F90E002
:1009800080719927982F8981890F898382EB90E064
:10099000FC0180818232D0F383E290E0FC0180810F
:1009A000882F90E080719927982F8981890F8983FA
:1009B0008981882F90E0880F991F880F991F807870
:1009C0000F90DF91CF910895CF93DF9300D000D0A7
:1009D000CDB7DEB781EB90E022E0FC01208384E21A
:1009E00090E0FC01208184E290E02F7EFC012083D6
:1009F00085E290E0FC01208185E290E02061FC012D
:100A000020831A8283E290E0FC018081882F90E0AD
:100A100080719927892BB1F783E290E0FC018081F6
:100A2000882F90E080719927892BB1F782EB90E0B5
:100A3000FC01108282EB90E0FC0110821B82198283
:100A40000FC00E9495048C838A8186959C81890FB2
:100A50008A839B818C8189278B8389818F5F89839E
:100A60008981883070F30E949504982F8B818927A3
:100A70008B8382EB90E0FC0180818D35D0F38B81FC
:100A80008823C9F085E290E0FC01208185E290E0B6
:100A90002F7EFC01208384E290E0FC01208184E22F
:100AA00090E02061FC01208382EB90E0FC018081DA
:100AB000823AD0F394CF82EB90E0FC0180818B38B6
:100AC000D0F381EB90E0FC0110828A810F900F90AF
:100AD0000F900F90DF91CF9108952F923F924F92F8
:100AE0005F926F927F928F929F92AF92BF92CF92BE
:100AF000DF92EF92FF920F931F93CF93DF93CDB7C7
:100B0000DEB7C054D1400FB6F894DEBF0FBECDBFE4
:100B10001C01FB018E010F5F1F4FC35FDE4F198366
:100B20000883CD50D140AB01405C5F4F980160819C
:100B3000818190E0B0E0A0E0DC0199278827B62B06
:100B40006381862B62816C017D01D62AD901CD9209
:100B5000DD92ED92FD929D0134964E175F0739F7B5
:100B6000C35FDE4F08811981CD50D14000541F4F23
:100B7000C35FDE4FE881F981CD50D1409F01C0AC09
:100B8000D1ACE2ACF3AC4481558166817781349677
:100B900046015701AFE0880C991CAA1CBB1CAA9502
:100BA000D1F7D701C601072E71E1B695A7959795A4
:100BB00087957A95D1F7702D88299929AA29BB297B
:100BC00046015701072E7DE0880C991CAA1CBB1C0E
:100BD0007A95D1F7702D26013701032E33E17694F3
:100BE0006794579447943A95D1F7302D84289528E7
:100BF000A628B72888259925AA25BB250B2EBAE05B
:100C0000F694E794D794C794BA95D1F7B02DC82637
:100C1000D926EA26FB26D90194968D909D90AD9019
:100C2000BC9097974D905D906D907C90D501C401DC
:100C3000840D951DA61DB71D8C0D9D1DAE1DBF1DE0
:100C40002A013B0127E076946794579447942A95AC
:100C5000D1F76A017B0139E1CC0CDD1CEE1CFF1CD5
:100C60003A95D1F74C285D286E287F286A017B01D0
:100C70002EE0CC0CDD1CEE1CFF1C2A95D1F74A019E
:100C80005B0132E1B694A794979487943A95D1F793
:100C9000C828D928EA28FB284C245D246E247F2408
:100CA00023E076956795579547952A95D1F7442582
:100CB000552566257725840F951FA61FB71F84AF7E
:100CC00095AFA6AFB7AF0E171F0709F057CFF101C9
:100CD000E45BFF4FC080D180E280F380C95EDE4FCD
:100CE000C882D982EA82FB82C751D1403496E08023
:100CF000F18002811381C55EDE4FE882F9820A83AA
:100D00001B83CB51D14034960081118122813381E4
:100D1000C15EDE4F088319832A833B83CF51D140C4
:100D200034962081318142815381CD5DDE4F28830D
:100D300039834A835B83C352D140349640815181C9
:100D400062817381C95DDE4F488359836A837B83E7
:100D5000C752D14034966081718182819381C55D93
:100D6000DE4F688379838A839B83CB52D14034964C
:100D700080819181A281B381C15DDE4F8883998397
:100D8000AA83BB83CF52D1403496C080D180E28009
:100D9000F380CD5CDE4FC882D982EA82FB82C353E6
:100DA000D14000E011E0C15CDE4F19830883CF53CE
:100DB000D140CF5FDE4FC882D982EA82FB82C15028
:100DC000D140CD5EDE4F88839983AA83BB83C35114
:100DD000D140C55DDE4F288139814A815B81CB528C
:100DE000D140C15FDE4F288339834A835B83CF5074
:100DF000D140C95DDE4F88819981AA81BB81C752EC
:100E0000D140CD5DDE4F488159816A817B81C352DB
:100E1000D140C95CDE4F488359836A837B83C753C3
:100E2000D140C15EDE4FC880D980EA80FB80CF51BF
:100E3000D140C75FDE4FC882D982EA82FB82C950A7
:100E4000D140C55EDE4FE880F9800A811B81CB511D
:100E5000D140CB5FDE4FE882F9820A831B83C55005
:100E6000D140C95EDE4F488159816A817B81C7517B
:100E7000D140C15CDE4FE881F981CF53D14001916F
:100E8000119121913191C15CDE4FF983E883CF53F9
:100E9000D140C55CDE4F088319832A833B83CB5343
:100EA000D140C35FDE4FE881F981CD50D1408190C0
:100EB0009190A190B190C35FDE4FF983E883CD504C
:100EC000D1402C013D012AE1440C551C661C771CC5
:100ED0002A95D1F78C019D01E6E036952795179567
:100EE0000795EA95D1F7402A512A622A732A8C0184
:100EF0009D01F5E1000F111F221F331FFA95D1F755
:100F00006C017D01EBE0F694E794D794C794EA95E1
:100F1000D1F70C291D292E293F2904251525262521
:100F200037252C013D01F9E1769467945794479455
:100F3000FA95D1F76C017D01E7E0CC0CDD1CEE1CCD
:100F4000FF1CEA95D1F7C428D528E628F7280C25F8
:100F50001D252E253F25C55CDE4FC880D980EA803F
:100F6000FB80CB53D1408C0C9D1CAE1CBF1C080DCC
:100F7000191D2A1D3B1D4C015D0180949094A09485
:100F8000B094CD5EDE4FC880D980EA80FB80C3512B
:100F9000D1408C209D20AE20BF20C15FDE4FC88095
:100FA000D980EA80FB80CF50D140C822D922EA22E2
:100FB000FB228C249D24AE24BF24800E911EA21EF1
:100FC000B31ECF5FDE4FE880F9800A811B81C150DC
:100FD000D1408E0C9F1CA01EB11E2A013B01FEE1D8
:100FE000440C551C661C771CFA95D1F76A017B01ED
:100FF00012E0F694E794D794C7941A95D1F7C428D1
:10100000D528E628F7282A013B0103E1440C551CAA
:10101000661C771C0A95D1F78A019B01EDE0369595
:10102000279517950795EA95D1F7402A512A622A04
:10103000732A4C245D246E247F246A017B01F6E12F
:10104000F694E794D794C794FA95D1F78A019B0157
:10105000EAE0000F111F221F331FEA95D1F7C02AC3
:10106000D12AE22AF32A970186010425152526258F
:101070003725CF5FDE4F088319832A833B83C15016
:10108000D140CB5FDE4F488059806A807B80C5505D
:10109000D140C75FDE4FC880D980EA80FB80C9504D
:1010A000D1404C245D246E247F24442255226622A4
:1010B0007722CB5FDE4F088119812A813B81C550A1
:1010C000D1400C211D212E213F2140265126622690
:1010D0007326CF5FDE4FC880D980EA80FB80C15085
:1010E000D140C40CD51CE61CF71CC95CDE4F08813E
:1010F00019812A813B81C753D140080D191D2A1D32
:101100003B1D8C0C9D1CAE1CBF1CC75FDE4FC880F6
:10111000D980EA80FB80C950D140C95CDE4FC882CB
:10112000D982EA82FB82C753D140CD5EDE4FC880B0
:10113000D980EA80FB80C351D140CF5FDE4FC882A7
:10114000D982EA82FB82C150D140F0E0EF2EF2E07A
:10115000FF2EC15CDE4FE881F981CF53D140EE16FE
:10116000FF0609F0C4C0F101E45BFF4FC95EDE4F2A
:10117000C880D980EA80FB80C751D1408C0C9D1C6F
:10118000AE1CBF1C80829182A282B3823496C55E5F
:10119000DE4FC880D980EA80FB80CB51D1404C0D16
:1011A0005D1D6E1D7F1D4083518362837383349662
:1011B000C15EDE4F488159816A817B81CF51D14028
:1011C000CB5FDE4FC880D980EA80FB80C550D1401C
:1011D0004C0D5D1D6E1D7F1D4083518362837383A3
:1011E0003496CD5DDE4F488159816A817B81C3523F
:1011F000D140C75FDE4FC880D980EA80FB80C950EC
:10120000D1404C0D5D1D6E1D7F1D40835183628357
:1012100073833496C95DDE4F488159816A817B8131
:10122000C752D140040F151F261F371F008311839B
:10123000228333833496C55DDE4FC880D980EA802F
:10124000FB80CB52D1408C0D9D1DAE1DBF1D8083F8
:101250009183A283B3833496C15DDE4F88819981E7
:10126000AA81BB81CF52D140C15FDE4FE880F980B7
:101270000A811B81CF50D1408E0D9F1DA01FB11F31
:1012800080839183A283B3833496CD5CDE4F8881C3
:101290009981AA81BB81C353D140CD5EDE4F0881C5
:1012A00019812A813B81C351D140800F911FA21F18
:1012B000B31F80839183A283B383C05CDE4F0FB6DC
:1012C000F894DEBF0FBECDBFDF91CF911F910F917C
:1012D000FF90EF90DF90CF90BF90AF909F908F9056
:1012E0007F906F905F904F903F902F900895C15FD7
:1012F000DE4FC880D980EA80FB80CF50D140CD5EE0
:10130000DE4FC882D982EA82FB82C351D140C15FDD
:10131000DE4F88839983AA83BB83CF50D140D90104
:10132000C801CB5FDE4FE880F9800A811B81C55080
:10133000D140C75FDE4FE882F9820A831B83C95020
:10134000D140CB5FDE4F488359836A837B83C5508E
:10135000D140B501A4018DCD9C01FC01E05CFF4FA3
:1013600010821182128213823496108211821282AC
:1013700013821482158216821782389687E696EEBB
:10138000A9E0BAE680839183A283B383349685E88B
:101390009EEAA7E6BBEB80839183A283B383349656
:1013A00082E793EFAEE6BCE380839183A283B383AD
:1013B00034968AE395EFAFE4B5EA80839183A28304
:1013C000B38334968FE792E5AEE0B1E580839183F5
:1013D000A283B38334968CE898E6A5E0BBE98083CA
:1013E0009183A283B38334968BEA99EDA3E8BFE19E
:1013F00080839183A283B38328593F4F89E19DEC79
:10140000A0EEBBE5F90180839183A283B3830895A5
:101410004F925F926F927F928F929F92AF92BF9204
:10142000CF92DF92EF92FF920F931F93CF93DF93B0
:101430008C014B01C12CD12C76012A01712C612C1D
:101440005C0180E4A80EB11CE801CC5BDF4FC41442
:10145000D504E604F70488F0DF91CF911F910F9136
:10146000FF90EF90DF90CF90BF90AF909F908F90C4
:101470007F906F905F904F900895F50180819181EA
:10148000A281B381F40121914F01F801E80FF91F06
:1014900020830196A11DB11DF50180839183A28354
:1014A000B38380349105A105B10501F5B801C801E8
:1014B0000E946D05288139814A815B816C817D8123
:1014C0008E819F813E5F4F4F5F4F6F4F7F4F8F4F9A
:1014D0009F4F288339834A835B836C837D838E830C
:1014E0009F83F5011082118212821382FFEFCF1ABF
:1014F000DF0AEF0AFF0AABCF6F927F928F929F9223
:10150000AF92BF92CF92DF92EF92FF920F931F9311
:10151000CF93DF93EC014B018C01005C1F4FD8018E
:101520004D915D916D917C91DB01CA010196A11DE8
:10153000B11DFE01E40FF51F20E82083483351055B
:101540006105710508F023C188339105A105B10536
:1015500009F00EC1FE01EC5BFF4FD801AD90BD90CC
:10156000CD90DC9083E0AA0CBB1CCC1CDD1C8A95C2
:10157000D1F79501A60160E070E080E090E0A080E6
:10158000B180C280D380E480F580068117810E94FB
:101590000D0DF62E172FB82FA92F208331834283EC
:1015A00053836483758386839783D22EE32EF42F2F
:1015B000E52F622F7E2D8F2F9E2F0E94E90C6CAF9E
:1015C0007DAF8EAF9FAF2D2D3E2D4F2F5E2F6F2DF8
:1015D000712F8B2F9A2F00E20E94F20C2BAF2D2D32
:1015E0003E2D4F2F5E2F6F2D712F8B2F9A2F08E2DC
:1015F0000E94F20C2AAF2D2D3E2D4F2F5E2F6F2D06
:10160000712F8B2F9A2F00E30E94F20C29AF2D2D02
:101610003E2D4F2F5E2F6F2D712F8B2F9A2F08E3AA
:101620000E94F20C28AFBE01CE010E946D05F401AC
:1016300088E190E06E01BCE4CB0ED11C7E0120E578
:10164000E20EF11C8E010C5A1F4FBE01685A7F4FEB
:10165000AE01445A5F4F9E01205A3F4F3E01A4E61F
:101660006A0E711CC859DF4FD6018D909D90AD90C8
:10167000BC90082E04C0B694A794979487940A94BB
:10168000D2F78192D7018D909D90AD90BC90082E9D
:1016900004C0B694A794979487940A94D2F783824F
:1016A000D8018D909D90AD90BC90082E04C0B6944A
:1016B000A794979487940A94D2F78782DB018D9040
:1016C0009D90AD90BC90082E04C0B694A7949794BA
:1016D00087940A94D2F78386DA018D909D90AD901D
:1016E000BC90082E04C0B694A794979487940A944B
:1016F000D2F78786D9018D909D90AD90BC90082E31
:1017000004C0B694A794979487940A94D2F7838AD6
:10171000D3018D909D90AD90BC90082E04C0B694DE
:10172000A794979487940A94D2F7878A888099809F
:10173000AA80BB80082E04C0B694A794979487947F
:101740000A94D2F7838E0897883FBFEF9B0709F072
:101750008BCFDF91CF911F910F91FF90EF90DF9092
:10176000CF90BF90AF909F908F907F906F90089593
:10177000FE01E80FF91F10820196A11DB11DE4CEF4
:10178000FE01E80FF91F10820196A11DB11D8034E2
:101790009105A105B105A0F3BE01CE010E946D0522
:1017A00088E3FE0111928A95E9F7D4CE7F928F9259
:1017B0009F92AF92BF92CF92DF92EF92FF920F93E0
:1017C0001F93CF93DF93CDB7DEB7CC54D1400FB684
:1017D000F894DEBF0FBECDBF782EA92EB42EC52E35
:1017E000D22E7E018DEEE80EF11C80E4F7011192FD
:1017F0008A95E9F7862E912C613408F068C0A4011F
:10180000672D792FC7010E94160DDE01A355BF4F2A
:10181000BE0163597F4F9E01235D3E4F9A2EAB2E32
:10182000762E872E5CE596E3F70181917F01482FA4
:1018300045274D938927FB018193BF01E216F306EB
:1018400099F7CE0101960E94AC0940E450E0672D63
:10185000782DCE0101960E94080A4D2D50E06B2D87
:101860007C2DCE0101960E94080AB701CE01019697
:101870000E947C0ACE0101960E94AC0940E450E02F
:10188000692D7A2DCE0101960E94080A40E250E0AF
:10189000B701CE0101960E94080AB801CE01019657
:1018A0000E947C0AC45BDE4F0FB6F894DEBF0FBE09
:1018B000CDBFDF91CF911F910F91FF90EF90DF90FF
:1018C000CF90BF90AF909F908F907F900895CE0162
:1018D00001960E94AC09A401672D7A2DCE010196D4
:1018E0000E94080AB701CE0101960E947C0A8DCFA2
:1018F00080E880BF87E8809364008FEF85B984B962
:1019000088B987B91AB88BB980E68093B6000E946F
:10191000570010928702CEE6DDE60E94E404809331
:101920002B020E94E404809305020E94E404809349
:101930004C020E94E404809326020E94E4048093F7
:1019400085021092870280912B028038C9F5E091C0
:101950000502E150EE3088F5F0E0E55CF24F0C94C2
:10196000E30C0E947C00809186020E940E0480910C
:1019700087020E940E04D1CF0E94AC00F4CF0E94D7
:10198000FF00F1CF0E945801EECF0E94BC01EBCFC7
:101990000E948902E8CF0E94C200E5CF0E94F202B5
:1019A000E2CF0E949303DFCF0E946F03DCCF0E943F
:1019B0004302D9CF0E946202D6CFD0938602D3CF02
:1019C000C0938602D0CFEE0FFF1F0590F491E02D5B
:1019D0000994692796276927782787277827089504
:1019E00097FD1094002E083098F00850232F342FC4
:1019F000452F562F672F782F892F912DF4CF1594CF
:101A00009795879577956795579547953795279536
:101A10000A95AAF71124002D08952A0D3B1D4C1D8F
:101A20005D1D6E1D7F1D801F911F0895FB01DC0150
:101A300002C001900D9241505040D8F70895F99995
:101A4000FECF92BD81BDF89A992780B50895262FC3
:101A5000F999FECF92BD81BDF89A019700B40216A4
:101A600039F01FBA20BD0FB6F894FA9AF99A0FBE52
:101A70000895F894FFCFB10CBC0CBF0CDD0CDD0C4D
:101A8000C20CC50CC80CCB0CCE0CD10CD40CD70C92
:021A9000DA0C6E
:101A9200982F8A4291443771CFFBC0B5A5DBB5E9D7
:101AA2005BC25639F111F159A4823F92D55E1CAB4B
:101AB20098AA07D8015B8312BE853124C37D0C55D9
:101AC200745DBE72FEB1DE80A706DC9B74F19BC121
:101AD200C1699BE48647BEEFC69DC10FCCA10C2411
:101AE2006F2CE92DAA84744ADCA9B05CDA88F976F5
:101AF20052513E986DC631A8C82703B0C77F59BF5F
:101B0200F30BE0C64791A7D55163CA06672929148A
:101B1200850AB72738211B2EFC6D2C4D130D385327
:101B220054730A65BB0A6A762EC9C281852C7292E9
:101B3200A1E8BFA24B661AA8708B4BC2A3516CC717
:101B420019E892D1240699D685350EF470A06A1050
:101B520016C1A419086C371E4C774827B5BCB0349F
:101B6200B30C1C394AAAD84E4FCA9C5BF36F2E683D
:101B7200EE828F746F63A5781478C8840802C78CCC
:101B8200FAFFBE90EB6C50A4F7A3F9BEF27871C6CF
:00000001FF
